:100000000C942A000C943F000C943F000C943F0089
:100010000C943F000C943F000C943F000C943F0064
:100020000C943F000C943F000C943F000C943F0054
:100030000C943F000C943F000C943F000C943F0044
:100040000C943F000C943F000C943F000C943F0034
:100050000C943F0011241FBECFE5D8E0DEBFCDBF1A
:1000600010E0A0E6B0E0EAE9F4E202C005900D92EB
:10007000AE39B107D9F70E94E5110C944B120C94DC
:100080000000EF92FF920F931F937B018C0120E001
:1000900030E040E05FE40E94410388238CF0C80117
:1000A000B70120E030E040E05FE40E94B9010E9427
:1000B000A1039B01AC01205030404040504806C095
:1000C000C801B7010E94A1039B01AC01B901CA019B
:1000D0001F910F91FF90EF900895A0E0B0E0E3E74B
:1000E000F0E00C941412DC012B01FA019C91923087
:1000F00008F439C1EB018881823008F433C19430AF
:1001000069F4843009F02FC111969C91119789816F
:10011000981709F428C1ABE6B0E025C1843009F492
:1001200021C18230A9F4923009F01DC19A01AD01BC
:1001300088E0EA010990AE01E90109929E0181502F
:10014000C1F7E201898111969C918923818308C1BD
:10015000923009F407C112962D903C901397EB0151
:100160008A819B811496AD90BD90CD90DC901797BD
:10017000EC80FD800E811F819101281B390BB90194
:1001800037FF04C066277727621B730B6032710547
:100190000CF061C0121613066CF537014801062EEB
:1001A00004C096948794779467940A94D2F721E0D8
:1001B00030E040E050E004C0220F331F441F551FC1
:1001C0006A95D2F721503040404050402E213F21C7
:1001D00040235123211531054105510521F021E02E
:1001E00030E040E050E079018A01E628F72808294C
:1001F00019293CC0232BD1F1260E371E35014601AB
:10020000062E04C096948794779467940A94D2F744
:1002100021E030E040E050E004C0220F331F441FD3
:10022000551F6A95D2F721503040404050402A2156
:100230003B214C215D21211531054105510521F05E
:1002400021E030E040E050E059016A01A628B728DB
:10025000C828D9280BC0821593052CF01C01AA24AC
:10026000BB24650103C0EE24FF24870111969C91F5
:10027000D20111968C91981709F445C0992339F051
:10028000A80197012A193B094C095D0906C0A6017E
:1002900095012E193F09400B510B57FD08C01182E3
:1002A0003382228224833583468357831DC081E0B5
:1002B00081833382228288279927DC01821B930B5A
:1002C000A40BB50B84839583A683B7830DC0220F3F
:1002D000331F441F551F24833583468357838281F0
:1002E000938101979383828324813581468157814D
:1002F000DA01C9010197A109B1098F5F9F4FAF4F83
:10030000BF4328F30BC0918333822282EA0CFB1C8B
:100310000C1D1D1DE482F5820683178383E0808314
:10032000248135814681578157FF1AC0C901AA2708
:1003300097FDA095BA2F81709070A070B0705695FF
:10034000479537952795822B932BA42BB52B848328
:100350009583A683B7838281938101969383828359
:10036000DF0101C0D201CD01CDB7DEB7E2E10C94CF
:100370003012A0E2B0E0EFEBF1E00C9420126983C0
:100380007A838B839C832D833E834F835887E9E058
:10039000EE2EF12CEC0EFD1ECE010196B7010E944F
:1003A000CA048E010F5E1F4FCE010596B8010E9450
:1003B000CA048A8991E089278A8BC701B801AE01F6
:1003C000475E5F4F0E946D000E94F503A096E6E035
:1003D0000C943C12A0E2B0E0E0EFF1E00C942012AB
:1003E00069837A838B839C832D833E834F835887D5
:1003F000F9E0EF2EF12CEC0EFD1ECE010196B701B7
:100400000E94CA048E010F5E1F4FCE010596B801EF
:100410000E94CA04C701B801AE01475E5F4F0E9447
:100420006D000E94F503A096E6E00C943C12A0E259
:10043000B0E0EDE1F2E00C94141269837A838B83CF
:100440009C832D833E834F835887CE010196BE0146
:10045000675F7F4F0E94CA04CE010596BE016F5EA2
:100460007F4F0E94CA049985923088F08989823032
:10047000C8F0943019F4823051F404C0843029F467
:10048000923081F48BE690E0C6C0923049F420E0CF
:100490009A858A89981321E02A87CE010996BBC0E4
:1004A000823049F420E09A858A89981321E02A8BCA
:1004B000CE014196B0C02D843E844F8458886D880B
:1004C0007E888F88988CEE24FF248701AA24BB2481
:1004D000650140E050E060E070E0E0E0F0E0C10184
:1004E00081709070892BE9F0E60CF71C081D191D2E
:1004F0009A01AB012A0D3B1D4C1D5D1D80E090E073
:10050000A0E0B0E0E614F7040805190520F481E046
:1005100090E0A0E0B0E0BA01A901480F591F6A1F9E
:100520007B1FAA0CBB1CCC1CDD1C97FE08C081E005
:1005300090E0A0E0B0E0A82AB92ACA2ADB2A3196C6
:10054000E032F10549F0660C771C881C991C569422
:10055000479437942794C3CFFA85EA892B893C893D
:100560008B859C85280F391F2E5F3F4F17C0CA010E
:1005700081709070892B61F016950795F794E79438
:1005800080E090E0A0E0B0E8E82AF92A0A2B1B2BD3
:1005900076956795579547952F5F3F4F77FDE7CF46
:1005A0000CC0440F551F661F771F17FD4160EE0CEE
:1005B000FF1C001F111F21503040403090E05907B0
:1005C00090E0690790E4790760F32B8F3C8FDB01A3
:1005D000CA018F779070A070B07080349105A1052A
:1005E000B10561F447FD0AC0E114F10401051105EC
:1005F00029F0405C5F4F6F4F7F4F40781A8EFE1797
:1006000011F081E08A8F4D8F5E8F6F8F78A383E02A
:10061000898FCE0149960E94F503A096E2E10C94E1
:100620003012A8E1B0E0E7E1F3E00C942012698316
:100630007A838B839C832D833E834F83588789E005
:10064000E82EF12CEC0EFD1ECE010196B7010E94A2
:10065000CA048E010F5E1F4FCE010596B8010E949D
:10066000CA048985823040F08989823028F0C70128
:10067000B8010E94420501C08FEF6896E6E00C9435
:100680003C12A8E1B0E0E7E4F3E00C9420126983A7
:100690007A838B839C832D833E834F83588789E0A5
:1006A000E82EF12CEC0EFD1ECE010196B7010E9442
:1006B000CA048E010F5E1F4FCE010596B8010E943D
:1006C000CA048985823040F08989823028F0C701C8
:1006D000B8010E94420501C08FEF6896E6E00C94D5
:1006E0003C12A8E1B0E0E7E7F3E00C942012698344
:1006F0007A838B839C832D833E834F83588789E045
:10070000E82EF12CEC0EFD1ECE010196B7010E94E1
:10071000CA048E010F5E1F4FCE010596B8010E94DC
:10072000CA048985823040F08989823028F0C70167
:10073000B8010E94420501C081E06896E6E00C9491
:100740003C12ACE0B0E0E7EAF3E00C9424126983D9
:100750007A838B839C83CE010196BE016B5F7F4FB2
:100760000E94CA048D81823061F1823050F1843060
:1007700021F48E81882351F12EC02F81388537FDD9
:1007800020C06E812F3131051CF06623F9F023C0A3
:100790008EE190E0821B930B29853A854B855C8521
:1007A00004C056954795379527958A95D2F76623C5
:1007B000B1F050954095309521953F4F4F4F5F4F89
:1007C0000EC020E030E040E050E009C02FEF3FEFE6
:1007D0004FEF5FE704C020E030E040E050E8B901AF
:1007E000CA012C96E2E00C944012DF92EF92FF9245
:1007F0000F931F93FC01E480F58006811781D1805F
:100800008081823048F480E090E0A0E1B0E0E82A06
:10081000F92A0A2B1B2BA5C0843009F49FC0823013
:1008200021F4EE24FF24870105C0E114F104010541
:10083000110519F4E0E0F0E096C0628173819FEF4A
:10084000623879070CF05BC022E83FEF261B370BBC
:100850002A3131052CF020E030E040E050E02AC0A1
:10086000B801A701022E04C0769567955795479564
:100870000A94D2F781E090E0A0E0B0E004C0880FD5
:10088000991FAA1FBB1F2A95D2F70197A109B10989
:100890008E219F21A023B1230097A105B10521F04E
:1008A00081E090E0A0E0B0E09A01AB01282B392B69
:1008B0004A2B5B2BDA01C9018F779070A070B07062
:1008C00080349105A105B10539F427FF09C0205CEA
:1008D0003F4F4F4F5F4F04C0215C3F4F4F4F5F4F23
:1008E000E0E0F0E02030A0E03A07A0E04A07A0E412
:1008F0005A0710F0E1E0F0E079018A0127C0603882
:10090000710564F5FB01E158FF4FD801C7018F77EE
:100910009070A070B07080349105A105B10539F4D4
:10092000E7FE0DC080E490E0A0E0B0E004C08FE3FB
:1009300090E0A0E0B0E0E80EF91E0A1F1B1F17FFB1
:1009400005C016950795F794E794319687E01695BC
:100950000795F794E7948A95D1F705C0EE24FF2414
:100960008701EFEFF0E06E2F679566276795902F70
:100970009F77D794DD24D7948E2F8695492F462BC9
:10098000582F5D29B701CA011F910F91FF90EF9079
:10099000DF900895FC01DB01408151812281622FAB
:1009A0006F7770E0221F2227221F9381892F880FE3
:1009B000822B282F30E0991F9927991F11969C931D
:1009C000119721153105A9F54115510561057105ED
:1009D00011F482E037C082E89FEF13969C938E93C8
:1009E00012979A01AB0167E0220F331F441F551F76
:1009F0006A95D1F783E08C930DC0220F331F441FFB
:100A0000551F12968D919C911397019713969C9365
:100A10008E931297203080E0380780E0480780E40A
:100A2000580758F314962D933D934D935C93179765
:100A300008952F3F310579F4411551056105710580
:100A400019F484E08C93089564FF03C081E08C93D3
:100A500012C01C9210C02F57304013963C932E9317
:100A6000129783E08C9387E0440F551F661F771F12
:100A70008A95D1F7706414964D935D936D937C9332
:100A8000179708951F93DC01FB019C91923008F4A5
:100A900047C08081823008F443C0943051F41196ED
:100AA0001C91843099F58181682F70E0611B710978
:100AB0003FC0843021F0923031F48230B9F181812D
:100AC000882389F12DC011961C9111978230F1F085
:100AD00081811817D9F412962D913C911397828138
:100AE00093818217930794F028173907BCF0149666
:100AF0008D919D910D90BC91A02D248135814681D1
:100B00005781281739074A075B0718F4112341F06A
:100B10000AC082179307A407B50740F4112319F000
:100B200061E070E005C06FEF7FEF02C060E070E051
:100B3000CB011F910895DF93CF93CDB7DEB7EAE3E2
:100B4000F0E087E08083E7E3F0E08DEF8083E4E38B
:100B5000F0E08FEF8083E1E3F0E080EF8083EBE370
:100B6000F0E088EF8083E8E3F0E082EE8083E5E365
:100B7000F0E01082E2E3F0E08FEF8083CF91DF912D
:100B80000895DF93CF93CDB7DEB72E970FB6F894C5
:100B9000DEBF0FBECDBF8A836B834C8319828A81EF
:100BA000843030F48B81883018F48C81823018F0D6
:100BB00081E08983D7C08A81282F30E03E872D8746
:100BC0008D859E858130910509F444C02D853E8533
:100BD000223031052CF48D859E85009771F0C2C0BE
:100BE0002D853E852230310509F462C08D859E85B4
:100BF0008330910509F489C0B5C08C818130A9F496
:100C0000ABE3B0E0EBE3F0E08081482F8B81282F4D
:100C100030E081E090E0022E02C0880F991F0A9414
:100C2000E2F7842B8C939C919DC0ABE3B0E0EBE3A7
:100C3000F0E08081482F8B81282F30E081E090E028
:100C400002C0880F991F2A95E2F7809584238C9320
:100C50002C9188C08C818130A9F4A8E3B0E0E8E34E
:100C6000F0E08081482F8B81282F30E081E090E0F8
:100C7000022E02C0880F991F0A94E2F7842B8C93EE
:100C80003C9170C0A8E3B0E0E8E3F0E08081482F39
:100C90008B81282F30E081E090E0022E02C0880F87
:100CA000991F0A94E2F7809584238C938C915AC003
:100CB0008C818130A9F4A5E3B0E0E5E3F0E0808128
:100CC000482F8B81282F30E081E090E0022E02C077
:100CD000880F991F0A94E2F7842B8C939C9142C051
:100CE000A5E3B0E0E5E3F0E08081482F8B81282F79
:100CF00030E081E090E002C0880F991F2A95E2F76A
:100D0000809584238C932C912DC08C818130A9F403
:100D1000A2E3B0E0E2E3F0E08081482F8B81282F4E
:100D200030E081E090E0022E02C0880F991F0A9403
:100D3000E2F7842B8C933C9115C0A2E3B0E0E2E390
:100D4000F0E08081482F8B81282F30E081E090E017
:100D5000022E02C0880F991F0A94E2F7809584231F
:100D60008C938C9189812E960FB6F894DEBF0FBEBE
:100D7000CDBFCF91DF910895DF93CF9300D000D006
:100D80000F92CDB7DEB78A836B8319828A81282FB1
:100D900030E03D832C838C819D8181309105D1F0A1
:100DA0002C813D81223031052CF48C819D8100976E
:100DB00061F01EC02C813D812230310581F08C8193
:100DC0009D818330910581F013C0EBE3F0E08B81CE
:100DD00080830EC0E8E3F0E08B81808309C0E5E307
:100DE000F0E08B81808304C0E2E3F0E08B818083BC
:100DF00089810F900F900F900F900F90CF91DF91FE
:100E00000895DF93CF93CDB7DEB727970FB6F89449
:100E1000DEBF0FBECDBF8A836B835D834C83198297
:100E20008A81843038F48B81883020F48C819D81D4
:100E3000009719F481E0898370C08A81282F30E0FF
:100E40003F832E834E815F814130510559F18E8160
:100E50009F818230910534F42E813F812115310527
:100E600069F05BC04E815F814230510579F18E811E
:100E70009F818330910509F43DC04FC0E9E3F0E064
:100E80008081282F30E08B81882F90E0A90102C05B
:100E9000559547958A95E2F7CA018170EC81FD81ED
:100EA00080833BC0E6E3F0E08081282F30E08B8137
:100EB000882F90E0A90102C0559547958A95E2F7E1
:100EC000CA018170EC81FD81808327C0E3E3F0E0FB
:100ED0008081282F30E08B81882F90E0A90102C00B
:100EE000559547958A95E2F7CA018170EC81FD819D
:100EF000808313C0E0E3F0E08081282F30E08B8115
:100F0000882F90E0A90102C0559547958A95E2F790
:100F1000CA018170EC81FD818083898127960FB69B
:100F2000F894DEBF0FBECDBFCF91DF910895DF9360
:100F3000CF9300D000D000D0CDB7DEB78A837C83BA
:100F40006B8319828A81282F30E03E832D838D8127
:100F50009E8181309105E1F02D813E812230310565
:100F60002CF48D819E81009761F026C02D813E81F9
:100F700022303105A1F08D819E8183309105B1F041
:100F80001BC0E9E3F0E08081EB81FC81808314C029
:100F9000E6E3F0E08081EB81FC8180830DC0E3E338
:100FA000F0E08081EB81FC81808306C0E0E3F0E02B
:100FB0008081EB81FC818083898126960FB6F8942D
:100FC000DEBF0FBECDBFCF91DF910895DF93CF93EA
:100FD000CDB7DEB70E949B05CF91DF910895DF93D7
:100FE000CF9300D0CDB7DEB78A83198281E08983A1
:100FF00089810F900F90CF91DF910895DF93CF9368
:10100000CDB7DEB70E949B05CF91DF910895DF93A6
:10101000CF9300D00F92CDB7DEB78A836B8319824E
:101020008A81883018F48B81823018F081E08983BE
:1010300017C08A81882F90E0880F991FFC01ED5816
:10104000FF4F20818A81882F90E0880F991FFC0133
:10105000EC58FF4F9081822F692F4B810E94C10570
:1010600089810F900F900F90CF91DF910895DF93BA
:10107000CF93CDB7DEB760970FB6F894DEBF0FBE43
:10108000CDBF188A1F867DC08F8561E00E9407084A
:1010900080E090E0A0E2B1E48B879C87AD87BE87BB
:1010A0006B857C858D859E8520E030E04AE755E4A0
:1010B0000E941702DC01CB018F839887A987BA872A
:1010C0006F81788589859A8520E030E040E85FE38C
:1010D0000E94710388232CF481E090E09E838D832D
:1010E0003FC06F81788589859A8520E03FEF4FE783
:1010F00057E40E94110318164CF56B857C858D858D
:101100009E8520E030E040E251E40E941702DC01BD
:10111000CB01BC01CD010E944100DC01CB019E83CB
:101120008D830FC080E991E09C838B838B819C81B0
:101130000197F1F79C838B838D819E8101979E831C
:101140008D838D819E81009769F714C06F817885AA
:1011500089859A850E944100DC01CB019E838D83A5
:101160008D819E819A83898389819A810197F1F784
:101170009A8389838F8560E00E9407088F858F5F3F
:101180008F878F85883008F47FCF888960960FB667
:10119000F894DEBF0FBECDBFCF91DF910895DF93EE
:1011A000CF93CDB7DEB760970FB6F894DEBF0FBE12
:1011B000CDBF188A87E08F878F8561E00E9407087E
:1011C00080E090E0A0E2B1E48B879C87AD87BE878A
:1011D0006B857C858D859E8520E030E04AE755E46F
:1011E0000E941702DC01CB018F839887A987BA87F9
:1011F0006F81788589859A8520E030E040E85FE35B
:101200000E94710388232CF481E090E09E838D83FB
:101210003FC06F81788589859A8520E03FEF4FE751
:1012200057E40E94110318164CF56B857C858D855B
:101230009E8520E030E040E251E40E941702DC018C
:10124000CB01BC01CD010E944100DC01CB019E839A
:101250008D830FC080E991E09C838B838B819C817F
:101260000197F1F79C838B838D819E8101979E83EB
:101270008D838D819E81009769F714C06F81788579
:1012800089859A850E944100DC01CB019E838D8374
:101290008D819E819A83898389819A810197F1F753
:1012A0009A8389838F8560E00E9407088F8581502B
:1012B0008F8782CFDF93CF93CDB7DEB76D970FB611
:1012C000F894DEBF0FBECDBF1D8E80E061E00E94AE
:1012D000070881E061E00E94070882E061E00E9467
:1012E000070883E061E00E94070884E061E00E9453
:1012F000070885E061E00E94070886E061E00E943F
:10130000070887E061E00E94070880E090E0A8E419
:10131000B2E4898F9A8FAB8FBC8F698D7A8D8B8D5C
:101320009C8D20E030E04AE755E40E941702DC0182
:10133000CB018D8B9E8BAF8BB88F6D897E898F890A
:10134000988D20E030E040E85FE30E94710388233D
:101350002CF481E090E09C8B8B8B3FC06D897E8963
:101360008F89988D20E03FEF4FE757E40E941103EB
:1013700018164CF5698D7A8D8B8D9C8D20E030E0B0
:1013800040E251E40E941702DC01CB01BC01CD0117
:101390000E944100DC01CB019C8B8B8B0FC080E94C
:1013A00091E09A8B898B89899A890197F1F79A8BB9
:1013B000898B8B899C8901979C8B8B8B8B899C89D2
:1013C000009769F714C06D897E898F89988D0E9476
:1013D0004100DC01CB019C8B8B8B8B899C89988B8A
:1013E0008F878F8598890197F1F7988B8F8780E099
:1013F00060E00E94070881E060E00E94070882E048
:1014000060E00E94070883E060E00E94070884E033
:1014100060E00E94070885E060E00E94070886E01F
:1014200060E00E94070887E060E00E94070880E013
:1014300090E0A8E4B2E48B879C87AD87BE876B857C
:101440007C858D859E8520E030E04AE755E40E944A
:101450001702DC01CB018F839887A987BA876F8138
:10146000788589859A8520E030E040E85FE30E9436
:10147000710388232CF481E090E09E838D833FC02C
:101480006F81788589859A8520E03FEF4FE757E4A3
:101490000E94110318164CF56B857C858D859E8501
:1014A00020E030E040E251E40E941702DC01CB0171
:1014B000BC01CD010E944100DC01CB019E838D83E4
:1014C0000FC080E991E09C838B838B819C81019785
:1014D000F1F79C838B838D819E8101979E838D8301
:1014E0008D819E81009769F714C06F817885898509
:1014F0009A850E944100DC01CB019E838D838D8102
:101500009E819A83898389819A810197F1F79A83D1
:1015100089838D8D6D960FB6F894DEBF0FBECDBF5B
:10152000CF91DF910895DF93CF93CDB7DEB7619769
:101530000FB6F894DEBF0FBECDBF198A87E08F8744
:10154000188A88C0888961E00E9407088F8561E059
:101550000E94070880E090E0A8E4B2E48B879C87B3
:10156000AD87BE876B857C858D859E8520E030E0CC
:101570004AE755E40E941702DC01CB018F8398876C
:10158000A987BA876F81788589859A8520E030E0C0
:1015900040E85FE30E94710388232CF481E090E02F
:1015A0009E838D833FC06F81788589859A8520E0F1
:1015B0003FEF4FE757E40E94110318164CF56B8577
:1015C0007C858D859E8520E030E040E251E40E94DC
:1015D0001702DC01CB01BC01CD010E944100DC01FE
:1015E000CB019E838D830FC080E991E09C838B8328
:1015F0008B819C810197F1F79C838B838D819E81E8
:1016000001979E838D838D819E81009769F714C019
:101610006F81788589859A850E944100DC01CB0124
:101620009E838D838D819E819A83898389819A810E
:101630000197F1F79A838983888960E00E940708FF
:101640008F8560E00E9407088F8581508F87888989
:101650008F5F888B8889843008F474CF898961967C
:101660000FB6F894DEBF0FBECDBFCF91DF910895C6
:10167000DF93CF93CDB7DEB761970FB6F894DEBF97
:101680000FBECDBF198A84E08F8783E0888B88895D
:1016900061E00E9407088F8561E00E94070880E0F2
:1016A00090E0A8E4B2E48B879C87AD87BE876B850A
:1016B0007C858D859E8520E030E04AE755E40E94D8
:1016C0001702DC01CB018F839887A987BA876F81C6
:1016D000788589859A8520E030E040E85FE30E94C4
:1016E000710388232CF481E090E09E838D833FC0BA
:1016F0006F81788589859A8520E03FEF4FE757E431
:101700000E94110318164CF56B857C858D859E858E
:1017100020E030E040E251E40E941702DC01CB01FE
:10172000BC01CD010E944100DC01CB019E838D8371
:101730000FC080E991E09C838B838B819C81019712
:10174000F1F79C838B838D819E8101979E838D838E
:101750008D819E81009769F714C06F817885898596
:101760009A850E944100DC01CB019E838D838D818F
:101770009E819A83898389819A810197F1F79A835F
:101780008983888960E00E9407088F8560E00E9455
:1017900007088F858F5F8F8788898150888B77CFE7
:1017A000DF93CF93CDB7DEB7E8970FB6F894DEBFDF
:1017B0000FBECDBF0E949B0580E090E0A0E0B2E4A8
:1017C0008DAB9EABAFABB8AF6DA97EA98FA998AD1D
:1017D00020E030E04AE755E40E941702DC01CB012B
:1017E00089AB9AABABABBCAB69A97AA98BA99CA915
:1017F00020E030E040E85FE30E94710388232CF48E
:1018000081E090E098AB8FA73FC069A97AA98BA926
:101810009CA920E03FEF4FE757E40E941103181600
:101820004CF56DA97EA98FA998AD20E030E040E28B
:1018300051E40E941702DC01CB01BC01CD010E94E2
:101840004100DC01CB0198AB8FA70FC080E991E08C
:101850009EA78DA78DA59EA50197F1F79EA78DA7A1
:101860008FA598A9019798AB8FA78FA598A90097E6
:1018700069F714C069A97AA98BA99CA90E944100A3
:10188000DC01CB0198AB8FA78FA598A99CA78BA74C
:101890008BA59CA50197F1F79CA78BA788E30E94D5
:1018A000B90D80E090E0A0E8BFE38FA398A7A9A7B7
:1018B000BAA76FA178A589A59AA520E030E04AE7EC
:1018C00055E40E941702DC01CB018BA39CA3ADA3BE
:1018D000BEA36BA17CA18DA19EA120E030E040E8D9
:1018E0005FE30E94710388232CF481E090E09AA3C7
:1018F00089A33FC06BA17CA18DA19EA120E03FEFF9
:101900004FE757E40E94110318164CF56FA178A514
:1019100089A59AA520E030E040E251E40E94170238
:10192000DC01CB01BC01CD010E944100DC01CB01F7
:101930009AA389A30FC080E991E098A38F8F8F8D20
:1019400098A10197F1F798A38F8F89A19AA1019788
:101950009AA389A389A19AA1009769F714C06BA1E2
:101960007CA18DA19EA10E944100DC01CB019AA324
:1019700089A389A19AA19E8F8D8F8D8D9E8D0197B0
:10198000F1F79E8F8D8F8CE00E94B90D80E090E082
:10199000A0E8BFE3898F9A8FAB8FBC8F698D7A8D5A
:1019A0008B8D9C8D20E030E04AE755E40E941702C1
:1019B000DC01CB018D8B9E8BAF8BB88F6D897E89BF
:1019C0008F89988D20E030E040E85FE30E9471034A
:1019D00088232CF481E090E09C8B8B8B3FC06D8939
:1019E0007E898F89988D20E03FEF4FE757E40E9472
:1019F000110318164CF5698D7A8D8B8D9C8D20E026
:101A000030E040E251E40E941702DC01CB01BC014E
:101A1000CD010E944100DC01CB019C8B8B8B0FC060
:101A200080E991E09A8B898B89899A890197F1F7EE
:101A30009A8B898B8B899C8901979C8B8B8B8B894B
:101A40009C89009769F714C06D897E898F89988D6C
:101A50000E944100DC01CB019C8B8B8B8B899C8984
:101A6000988B8F878F8598890197F1F7988B8F874F
:101A700081E00E94B90D80E090E0A0E0B0E48B87A7
:101A80009C87AD87BE876B857C858D859E8520E094
:101A900030E04AE755E40E941702DC01CB018F8356
:101AA0009887A987BA876F81788589859A8520E08C
:101AB00030E040E85FE30E94710388232CF481E06A
:101AC00090E09E838D833FC06F81788589859A855C
:101AD00020E03FEF4FE757E40E94110318164CF542
:101AE0006B857C858D859E8520E030E040E251E469
:101AF0000E941702DC01CB01BC01CD010E94410014
:101B0000DC01CB019E838D830FC080E991E09C8333
:101B10008B838B819C810197F1F79C838B838D81D3
:101B20009E8101979E838D838D819E81009769F7A9
:101B300014C06F81788589859A850E944100DC01F7
:101B4000CB019E838D838D819E819A838983898138
:101B50009A810197F1F79A83898386E00E94B90DF3
:101B6000E8960FB6F894DEBF0FBECDBFCF91DF91E0
:101B70000895DF93CF9300D0CDB7DEB78A83198263
:101B800080E062E040E00E94C10580E061E040E06A
:101B90000E94C10582E06A810E94BC060E94411039
:101BA00089810F900F90CF91DF910895DF93CF93AC
:101BB00000D0CDB7DEB78A83198280E062E041E0D1
:101BC0000E94C10580E061E040E00E94C10582E022
:101BD0006A810E94BC060E94411089810F900F907B
:101BE000CF91DF910895DF93CF9300D00F92CDB7BF
:101BF000DEB79B838A8319828A819B81009769F46F
:101C000081E089830FC0EA81FB8180810E94D60D2B
:101C10008A819B8101969B838A83EA81FB818081F3
:101C2000882389F789810F900F900F90CF91DF91D2
:101C30000895DF93CF9300D000D00F92CDB7DEB7D9
:101C40008A836B8319828A81823018F48B81803178
:101C500018F081E0898319C08A81282F30E03D8304
:101C60002C838C819D81009731F02C813D81213026
:101C7000310531F00AC08B8180680E94B90D05C022
:101C80008B81805C80680E94B90D89810F900F90D4
:101C90000F900F900F90CF91DF910895DF93CF9326
:101CA000CDB7DEB765970FB6F894DEBF0FBECDBFD8
:101CB0009A8B898B6B8B4C8B2D8B188A89899A898F
:101CC000009749F08B89883030F48C89823018F481
:101CD0008D89803118F081E0888B99C08B89882F9D
:101CE00090E00896880F991F880F991F880F991FF9
:101CF0000E94B90D1F8680C08F85282F30E089890A
:101D00009A89FC01E20FF31F80810E94D60D80E0CA
:101D100090E0A0EAB0E48B879C87AD87BE876B8597
:101D20007C858D859E8520E030E04AE755E40E9461
:101D30001702DC01CB018F839887A987BA876F814F
:101D4000788589859A8520E030E040E85FE30E944D
:101D5000710388232CF481E090E09E838D833FC043
:101D60006F81788589859A8520E03FEF4FE757E4BA
:101D70000E94110318164CF56B857C858D859E8518
:101D800020E030E040E251E40E941702DC01CB0188
:101D9000BC01CD010E944100DC01CB019E838D83FB
:101DA0000FC080E991E09C838B838B819C8101979C
:101DB000F1F79C838B838D819E8101979E838D8318
:101DC0008D819E81009769F714C06F817885898520
:101DD0009A850E944100DC01CB019E838D838D8119
:101DE0009E819A83898389819A810197F1F79A83E9
:101DF00089838F858F5F8F878F85883008F47CCFAC
:101E00008C896D890E94190E8B890E94D60D888954
:101E100065960FB6F894DEBF0FBECDBFCF91DF91B0
:101E20000895DF93CF93CDB7DEB761970FB6F894DF
:101E3000DEBF0FBECDBF8C871982CE0102969E8772
:101E40008D87E0E6F0E0F88BEF87FAE0F98BEF851D
:101E5000F88900808F8598890196988B8F87ED850A
:101E6000FE8500828D859E8501969E878D87998946
:101E70009150998BE989EE2351F78C8594E6692F6F
:101E80000E9408129AE0692F0E940812892F282FB9
:101E900030E0CE010296FC01E20FF31F80810E9428
:101EA000D60D8C859AE0692F0E9408129AE0692F5E
:101EB0000E940812892F282F30E0CE010296FC01E3
:101EC000E20FF31F80810E94D60D8C859AE0692F66
:101ED0000E940812892F282F30E0CE010296FC01C3
:101EE000E20FF31F80810E94D60D898161960FB6A3
:101EF000F894DEBF0FBECDBFCF91DF910895DF9381
:101F0000CF93CDB7DEB764970FB6F894DEBF0FBEA0
:101F1000CDBF9B8B8A8B198A188A8A899B890097E7
:101F200061F481E0898B898964960FB6F894DEBFED
:101F30000FBECDBFCF91DF9108951F8696C08889CF
:101F4000282F30E08A899B89FC01E20FF31F9081E2
:101F500088898F5F888B892F0E94D60D80E090E062
:101F6000A0EAB0E48B879C87AD87BE876B857C85B4
:101F70008D859E8520E030E04AE755E40E941702F7
:101F8000DC01CB018F839887A987BA876F81788519
:101F900089859A8520E030E040E85FE30E94710384
:101FA00088232CF481E090E09E838D833FC06F8175
:101FB000788589859A8520E03FEF4FE757E40E94B6
:101FC000110318164CF56B857C858D859E8520E068
:101FD00030E040E251E40E941702DC01CB01BC0179
:101FE000CD010E944100DC01CB019E838D830FC097
:101FF00080E991E09C838B838B819C810197F1F731
:102000009C838B838D819E8101979E838D838D819F
:102010009E81009769F714C06F81788589859A85BC
:102020000E944100DC01CB019E838D838D819E81C6
:102030009A83898389819A810197F1F79A838983A9
:102040008F85882F90E0817090701C8A009711F422
:1020500081E08C8B8F858F5F8F878C896F850E9445
:10206000190E8889873009F4188A8F85803108F421
:1020700066CF81E00E94B90D80E060E00E94190EF9
:102080005CCFDF93CF93CDB7DEB72E970FB6F89422
:10209000DEBF0FBECDBF80E060E041E00E94C10521
:1020A00080E090E0A0E8BFE38B879C87AD87BE8788
:1020B0006B857C858D859E8520E030E04AE755E480
:1020C0000E941702DC01CB018F839887A987BA870A
:1020D0006F81788589859A8520E030E040E85FE36C
:1020E0000E94710388232CF481E090E09E838D830D
:1020F0003FC06F81788589859A8520E03FEF4FE763
:1021000057E40E94110318164CF56B857C858D856C
:102110009E8520E030E040E251E40E941702DC019D
:10212000CB01BC01CD010E944100DC01CB019E83AB
:102130008D830FC080E991E09C838B838B819C8190
:102140000197F1F79C838B838D819E8101979E83FC
:102150008D838D819E81009769F714C06F8178858A
:1021600089859A850E944100DC01CB019E838D8385
:102170008D819E819A83898389819A810197F1F764
:102180009A83898380E060E040E00E94C1052E963A
:102190000FB6F894DEBF0FBECDBFCF91DF9108958B
:1021A000DF93CF93CDB7DEB70E949B05CF91DF9130
:1021B0000895DF93CF93CDB7DEB764970FB6F89449
:1021C000DEBF0FBECDBF9C8B8B8B198A8B899C8900
:1021D000009719F481E0898BE5C01F86DFC08F85E9
:1021E000882F90E0880F991FFC01E956FF4F20814E
:1021F0008F85882F90E0880F991FFC01E856FF4FCC
:102200009081822F692F40E00E94C105188AA8C0E2
:102210008889882F90E0880F991FFC01E157FF4FB4
:1022200040818889882F90E0880F991FFC01E05732
:10223000FF4F90819E012E5E3F4F842F692FA90191
:102240000E9401078A89882309F087C08889282F7E
:1022500030E08F85482F50E0C901880F991F820F09
:10226000931F840F951FFC01ED57FF4F8081EB8971
:10227000FC89808380E090E0A0E7B1E48B879C87B5
:10228000AD87BE876B857C858D859E8520E030E09F
:102290004AE755E40E941702DC01CB018F8398873F
:1022A000A987BA876F81788589859A8520E030E093
:1022B00040E85FE30E94710388232CF481E090E002
:1022C0009E838D833FC06F81788589859A8520E0C4
:1022D0003FEF4FE757E40E94110318164CF56B854A
:1022E0007C858D859E8520E030E040E251E40E94AF
:1022F0001702DC01CB01BC01CD010E944100DC01D1
:10230000CB019E838D830FC080E991E09C838B83FA
:102310008B819C810197F1F79C838B838D819E81BA
:1023200001979E838D838D819E81009769F71CC0E4
:102330006F81788589859A850E944100DC01CB01F7
:102340009E838D838D819E819A83898389819A81E1
:102350000197F1F79A83898307C088898F5F888BFB
:102360008889843008F454CF8F85882F90E0880FB7
:10237000991FFC01E956FF4F20818F85882F90E03F
:10238000880F991FFC01E856FF4F9081822F692F1B
:1023900041E00E94C1058F858F5F8F878F858330D5
:1023A00008F41DCF898964960FB6F894DEBF0FBE7E
:1023B000CDBFCF91DF910895DF93CF93CDB7DEB737
:1023C0000E949B05CF91DF910895DF93CF9300D0BA
:1023D000CDB7DEB70E949B0585E090E09A838983A4
:1023E0009E012F5F3F4F81E061E0A9010E9401073C
:1023F00089819A81009731F481E060E041E00E9498
:10240000C105EACF81E060E040E00E94C105E4CF71
:10241000991B79E004C0991F961708F0961B881F36
:102420007A95C9F7809508952F923F924F925F92C7
:102430006F927F928F929F92AF92BF92CF92DF92D4
:10244000EF92FF920F931F93CF93DF93CDB7DEB739
:10245000CA1BDB0B0FB6F894DEBF0FBECDBF0994CD
:102460002A88398848885F846E847D848C849B8424
:10247000AA84B984C884DF80EE80FD800C811B8132
:10248000AA81B981CE0FD11D0FB6F894DEBF0FBE61
:0A249000CDBFED010895F894FFCFD1
:10249A003031323334353637383900000000000025
:1024AA00000000010001010102010301040105010C
:1024BA000601073132333435363738392A302300AA
:0E24CA000300040005000600000001000200EF
:00000001FF
